:108000007520381281A075200E1281A075200112F2
:1080100081A07520061281A075890175A882758CD2
:108020004C758A0074147581607532807531517594
:1080300030001281047534061280CDF5331280AA07
:10804000128104128092D534EFD28C80FEF58370B9
:1080500003F4E58354B892D0F58333E58322114DC0
:10806000E58375F064842430F590E5F075F00A84BA
:108070002430F591E5F02430F59275220175230046
:1080800012818290009085822585832675240312B3
:10809000816D1280A174001280FBF470F81280A12F
:1080A00022782079FFD9FED8FA22E532C4F532E5EC
:1080B00031C4F531E530C4F530E5317832D6F531EB
:1080C000E5307831D6F530E5337830D622C0D0D2DD
:1080D000D4D2D3790074EFD3F8091280FBB4FF0730
:1080E000E8D31350EE80F17A001350030A80FAEAC5
:1080F00075F005A429129F0ED0D02290FFF0F090C9
:10810000FFF1E02290FFC1E530F090FFC2E531F0D1
:1081100090FFC3E532F022C28CD5E0480530E5304F
:10812000C3C2D6D4C3C2D6F530B4602975300005B9
:1081300031E531C3C2D6D4C3C2D6F531B4601675A9
:1081400031000532E532C3C2D6D4C3C2D6F532B44B
:10815000240375320031047414758C3C758AAF1198
:108160005ED28C32758C3C758AAFD28C327D0085A4
:108170002582852683ED93F5211281AA0DEDB52484
:10818000EE22E522B4010C74802523F5201281A093
:1081900002819FB4020974C02523F5201281A02218
:1081A0001281B490FFE0E520F0221281B490FFE14B
:0C81B000E521F02290FFE2E020E7F92238
:109F0B00028117832217161514130C0D0E0F11084F
:0D9F1B00090A0B12040506071000010203DD
:00000001FF
