:108000007520381281E075200E1281E07520011272
:1080100081E07520061281E075890175A882758C52
:108020004C758A00741475912A758160753280755B
:108030003151753000128137753406128100F533E5
:108040001280DD1281371280C6D534EFD28C1281B6
:1080500000F58080FEF5837003F4E58354B892D078
:10806000F58333E583221155E58375F00A84F59095
:10807000E5F0F5928590F0A4F593E5902430F59025
:10808000E5922430F592E5932430F593221281FC99
:1080900011667522017523001281C29000908582BD
:1080A000258583267524031281AD128100B59304C2
:1080B00012820122F534E53375F00AA425348534A3
:1080C00033B593E680EA1280D4740012812EF470E6
:1080D000F81280D4782079FFD9FED8FA22E532C48C
:1080E000F532E531C4F531E530C4F530E5317832AB
:1080F000D6F531E5307831D6F530E5337830D62213
:10810000C0D0D2D4D2D3790074EFD3F80912812E23
:10811000B4FF07E8D31350EE80F17A001350030A3E
:1081200080FAEA75F005A429129F0ED0D02290FFA4
:10813000F0F090FFF1E02290FFC1E530F090FFC237
:10814000E531F090FFC3E532F022D28CD5E0550541
:1081500030E530C3C2D6D4C3C2D6F530B460297579
:1081600030000531E531C3C2D6D4C3C2D6F531B42F
:1081700060167531000532E532C3C2D6D4C3C2D60B
:10818000F532B42403753200E580B5320A7400B5C7
:108190003105B53002118D31377414758C3C758AF8
:1081A000AFD28C32758C3C758AAFD28C327D008513
:1081B0002582852683ED93F5211281EA0DEDB52404
:1081C000EE22E522B4010C74802523F5201281E013
:1081D0000281DFB4020974C02523F5201281E02258
:1081E0001281F490FFE0E520F0221281F490FFE18B
:1081F000E521F02290FFE2E020E7F92274061282E6
:0B82000006740012820690FFEFF022CF
:109F0B0002814A832217161514130C0D0E0F11081C
:0D9F1B00090A0B12040506071000010203DD
:00000001FF
