:1080000075203812819A75200E12819A75200112FE
:10801000819A75200612819A7522017523021281B8
:108020007C9081B685822585832675240E12816712
:1080300075220275230212817C9081C48582258578
:10804000832675240E12816775890175A882758C47
:108050004C758A0074147581607532807531517564
:1080600030001281007534061280C9F5331280A6E3
:1080700012810012808ED534EFD28C80FEF5807094
:1080800003F4E58054B892D0F58033E58022128065
:108090009D74001280F7F470F812809D2278207988
:1080A000FFD9FED8FA22E532C4F532E531C4F53104
:1080B000E530C4F530E5317832D6F531E530783148
:1080C000D6F530E5337830D622C0D0D2D4D2D379A9
:1080D0000074EFD3F8091280F7B4FF07E8D3135008
:1080E000EE80F17A001350030A80FAEA75F005A4D5
:1080F00029129F0ED0D02290FFF0F090FFF1E022E5
:1081000090FFC1E530F090FFC2E531F090FFC3E58C
:1081100032F022C28CD5E0460530E530C3C2D6D459
:10812000C3C2D6F530B460297530000531E531C3DE
:10813000C2D6D4C3C2D6F531B4601675310005324B
:10814000E532C3C2D6D4C3C2D6F532B424037532E5
:108150000031007414758C3C758AAFD28C32758CEA
:108160003C758AAFD28C327D00852582852683EDD1
:1081700093F5211281A40DEDB524EE22E522B40180
:108180000C74802523F52012819A028199B402098A
:1081900074C02523F52012819A221281AE90FFE04F
:1081A000E520F0221281AE90FFE1E521F02290FF60
:1081B000E2E020E7F922444F20594F555220424532
:1081C00053542021594F552043414E20444F2049BC
:0281D000542138
:109F0B00028113832217161514130C0D0E0F110853
:0D9F1B00090A0B12040506071000010203DD
:00000001FF
