:1080000075203812818075200E1281807520011232
:1080100081807520061281807522017523021281EC
:108020006290819C85822585832675240E12814D60
:108030007522027523021281629081AA85822585AC
:10804000832675240E12814D75890175A882758C61
:108050004C758A00C3D28C7414758160753280753A
:10806000315175300012811D1280E620E40DF53388
:108070001280C312811D12808080ED12808F80E8F3
:108080001280BA7400128114F470F81280BA227C43
:108090000575300075310075320012811D7B0A12A2
:1080A00080BADBFB7530FF7531FF7532FF12811D21
:1080B0007B0A1280BADBFBDCD822782079FFD9FE5C
:1080C000D8FA22E532C4F532E531C4F531E530C4E1
:1080D000F530E5317832D6F531E5307831D6F53006
:1080E000E5337830D622C0D0D2D4D2D3790074EF21
:1080F000D3F809128114B4FF07E8D31350EE80F1CE
:108100007A001350030A80FAEA75F005A429129F39
:108110000ED0D02290FFF0F090FFF1E02290FFC14E
:10812000E530F090FFC2E531F090FFC3E532F02278
:10813000C28CD5E00F74140530311D758C3C758AE6
:10814000AFD28C32758C3C758AAFD28C327D008573
:108150002582852683ED93F52112818A0DEDB524C4
:10816000EE22E522B4010C74802523F520128180D3
:1081700002817FB4020974C02523F5201281802278
:1081800012819490FFE0E520F02212819490FFE1AB
:10819000E521F02290FFE2E020E7F922444F205948
:1081A0004F555220424553542021594F55204341A9
:0881B0004E20444F20495421E8
:109F0B00028130832217161514130C0D0E0F110836
:0D9F1B00090A0B12040506071000010203DD
:00000001FF
