:108000007520381281B975200E1281B975200112C0
:1080100081B97520061281B975220175230212817A
:108020009B9081D585822585832675240E128186B5
:1080300075220275230212819B9081E3858225853A
:10804000832675240E12818675890175A882758C28
:108050004C758A0074147581607532807531517564
:10806000300012811F7534061280E8F5331280C586
:1080700012811F128082D534EFD28C80FE12809143
:1080800080E61280BC7400128116F470F81280BC75
:10809000227C0575300075310075320012811F7B1E
:1080A0000A1280BCDBFB7530FF7531FF7532FF12A1
:1080B000811F7B0A1280BCDBFBDCD822782079FF91
:1080C000D9FED8FA22E532C4F532E531C4F531E5FE
:1080D00030C4F530E5317832D6F531E5307831D637
:1080E000F530E5337830D622C0D0D2D4D2D379005F
:1080F00074EFD3F809128116B4FF07E8D31350EEDA
:1081000080F17A001350030A80FAEA75F005A42979
:10811000129F0ED0D02290FFF0F090FFF1E022905D
:10812000FFC1E530F090FFC2E531F090FFC3E532CA
:10813000F022C28CD5E0460530E530C3C2D6D4C3A8
:10814000C2D6F530B460297530000531E531C3C2BF
:10815000D6D4C3C2D6F531B460167531000532E508
:1081600032C3C2D6D4C3C2D6F532B42403753200AA
:10817000311F7414758C3C758AAFD28C32758C3C6F
:10818000758AAFD28C327D00852582852683ED935A
:10819000F5211281C30DEDB524EE22E522B4010CC8
:1081A00074802523F5201281B90281B8B4020974C4
:1081B000C02523F5201281B9221281CD90FFE0E580
:1081C00020F0221281CD90FFE1E521F02290FFE224
:1081D000E020E7F922444F20594F555220424553A1
:1081E000542021594F552043414E20444F2049549B
:0181F000216D
:109F0B00028132832217161514130C0D0E0F110834
:0D9F1B00090A0B12040506071000010203DD
:00000001FF
