:108000007520381280BD75200E1280BD75200112BA
:1080100080BD7520061280BD752201752302128075
:108020009F9080D985822585832675240E12808AAB
:1080300075220275230212809F9080E78582258534
:10804000832675240E12808A75890175A882758C25
:108050004C758A00C3D28C741480FEC28CD5E007A4
:108060007414500C02807D758C3C758AAFD28C32B2
:10807000D3759000758C3C758AAFD28C32C37590E5
:10808000FF758C3C758AAFD28C327D008525828548
:108090002683ED93F5211280C70DEDB524EE22E580
:1080A00022B4010C74802523F5201280BD0280BC0F
:1080B000B4020974C02523F5201280BD221280D19C
:1080C00090FFE0E520F0221280D190FFE1E521F061
:1080D0002290FFE2E020E7F922444F20594F555209
:1080E00020424553542021594F552043414E2044AE
:0580F0004F204954215E
:039F0B0002805B76
:00000001FF
